{
  "contractName": "Token",
  "abi": [
    {
      "inputs": [],
      "payable": false,
      "stateMutability": "nonpayable",
      "type": "constructor"
    },
    {
      "anonymous": false,
      "inputs": [
        {
          "indexed": true,
          "internalType": "address",
          "name": "_owner",
          "type": "address"
        },
        {
          "indexed": true,
          "internalType": "address",
          "name": "_spender",
          "type": "address"
        },
        {
          "indexed": false,
          "internalType": "uint256",
          "name": "_value",
          "type": "uint256"
        }
      ],
      "name": "Approval",
      "type": "event"
    },
    {
      "anonymous": false,
      "inputs": [
        {
          "indexed": true,
          "internalType": "address",
          "name": "_from",
          "type": "address"
        },
        {
          "indexed": true,
          "internalType": "address",
          "name": "_to",
          "type": "address"
        },
        {
          "indexed": false,
          "internalType": "uint256",
          "name": "_value",
          "type": "uint256"
        }
      ],
      "name": "Transfer",
      "type": "event"
    },
    {
      "anonymous": false,
      "inputs": [
        {
          "indexed": true,
          "internalType": "address",
          "name": "account",
          "type": "address"
        }
      ],
      "name": "WhitelistAdminAdded",
      "type": "event"
    },
    {
      "anonymous": false,
      "inputs": [
        {
          "indexed": true,
          "internalType": "address",
          "name": "account",
          "type": "address"
        }
      ],
      "name": "WhitelistAdminRemoved",
      "type": "event"
    },
    {
      "anonymous": false,
      "inputs": [
        {
          "indexed": true,
          "internalType": "address",
          "name": "account",
          "type": "address"
        }
      ],
      "name": "WhitelistedAdded",
      "type": "event"
    },
    {
      "anonymous": false,
      "inputs": [
        {
          "indexed": true,
          "internalType": "address",
          "name": "account",
          "type": "address"
        }
      ],
      "name": "WhitelistedRemoved",
      "type": "event"
    },
    {
      "payable": true,
      "stateMutability": "payable",
      "type": "fallback"
    },
    {
      "constant": false,
      "inputs": [
        {
          "internalType": "address",
          "name": "account",
          "type": "address"
        }
      ],
      "name": "addWhitelistAdmin",
      "outputs": [],
      "payable": false,
      "stateMutability": "nonpayable",
      "type": "function"
    },
    {
      "constant": false,
      "inputs": [
        {
          "internalType": "address",
          "name": "account",
          "type": "address"
        }
      ],
      "name": "addWhitelisted",
      "outputs": [],
      "payable": false,
      "stateMutability": "nonpayable",
      "type": "function"
    },
    {
      "constant": true,
      "inputs": [],
      "name": "decimals",
      "outputs": [
        {
          "internalType": "uint8",
          "name": "",
          "type": "uint8"
        }
      ],
      "payable": false,
      "stateMutability": "view",
      "type": "function"
    },
    {
      "constant": true,
      "inputs": [
        {
          "internalType": "address",
          "name": "account",
          "type": "address"
        }
      ],
      "name": "isWhitelistAdmin",
      "outputs": [
        {
          "internalType": "bool",
          "name": "",
          "type": "bool"
        }
      ],
      "payable": false,
      "stateMutability": "view",
      "type": "function"
    },
    {
      "constant": true,
      "inputs": [
        {
          "internalType": "address",
          "name": "account",
          "type": "address"
        }
      ],
      "name": "isWhitelisted",
      "outputs": [
        {
          "internalType": "bool",
          "name": "",
          "type": "bool"
        }
      ],
      "payable": false,
      "stateMutability": "view",
      "type": "function"
    },
    {
      "constant": true,
      "inputs": [],
      "name": "name",
      "outputs": [
        {
          "internalType": "string",
          "name": "",
          "type": "string"
        }
      ],
      "payable": false,
      "stateMutability": "view",
      "type": "function"
    },
    {
      "constant": false,
      "inputs": [
        {
          "internalType": "address",
          "name": "account",
          "type": "address"
        }
      ],
      "name": "removeWhitelisted",
      "outputs": [],
      "payable": false,
      "stateMutability": "nonpayable",
      "type": "function"
    },
    {
      "constant": false,
      "inputs": [],
      "name": "renounceWhitelistAdmin",
      "outputs": [],
      "payable": false,
      "stateMutability": "nonpayable",
      "type": "function"
    },
    {
      "constant": false,
      "inputs": [],
      "name": "renounceWhitelisted",
      "outputs": [],
      "payable": false,
      "stateMutability": "nonpayable",
      "type": "function"
    },
    {
      "constant": true,
      "inputs": [],
      "name": "symbol",
      "outputs": [
        {
          "internalType": "string",
          "name": "",
          "type": "string"
        }
      ],
      "payable": false,
      "stateMutability": "view",
      "type": "function"
    },
    {
      "constant": true,
      "inputs": [],
      "name": "totalSupply",
      "outputs": [
        {
          "internalType": "uint256",
          "name": "",
          "type": "uint256"
        }
      ],
      "payable": false,
      "stateMutability": "view",
      "type": "function"
    },
    {
      "constant": true,
      "inputs": [
        {
          "internalType": "address",
          "name": "_owner",
          "type": "address"
        }
      ],
      "name": "balanceOf",
      "outputs": [
        {
          "internalType": "uint256",
          "name": "balance",
          "type": "uint256"
        }
      ],
      "payable": false,
      "stateMutability": "view",
      "type": "function"
    },
    {
      "constant": false,
      "inputs": [
        {
          "internalType": "address",
          "name": "_to",
          "type": "address"
        },
        {
          "internalType": "uint256",
          "name": "_value",
          "type": "uint256"
        }
      ],
      "name": "transfer",
      "outputs": [
        {
          "internalType": "bool",
          "name": "success",
          "type": "bool"
        }
      ],
      "payable": false,
      "stateMutability": "nonpayable",
      "type": "function"
    },
    {
      "constant": false,
      "inputs": [
        {
          "internalType": "address",
          "name": "_from",
          "type": "address"
        },
        {
          "internalType": "address",
          "name": "_to",
          "type": "address"
        },
        {
          "internalType": "uint256",
          "name": "_value",
          "type": "uint256"
        }
      ],
      "name": "transferFrom",
      "outputs": [
        {
          "internalType": "bool",
          "name": "success",
          "type": "bool"
        }
      ],
      "payable": false,
      "stateMutability": "nonpayable",
      "type": "function"
    },
    {
      "constant": false,
      "inputs": [
        {
          "internalType": "address",
          "name": "_spender",
          "type": "address"
        },
        {
          "internalType": "uint256",
          "name": "_value",
          "type": "uint256"
        }
      ],
      "name": "approve",
      "outputs": [
        {
          "internalType": "bool",
          "name": "success",
          "type": "bool"
        }
      ],
      "payable": false,
      "stateMutability": "nonpayable",
      "type": "function"
    },
    {
      "constant": true,
      "inputs": [
        {
          "internalType": "address",
          "name": "_owner",
          "type": "address"
        },
        {
          "internalType": "address",
          "name": "_spender",
          "type": "address"
        }
      ],
      "name": "allowance",
      "outputs": [
        {
          "internalType": "uint256",
          "name": "remaining",
          "type": "uint256"
        }
      ],
      "payable": false,
      "stateMutability": "view",
      "type": "function"
    }
  ],
  "bytecode": "0x60806040523480156200001157600080fd5b506200003262000026620001c060201b60201c565b620001c860201b60201c565b6040518060400160405280600381526020017f544f4b0000000000000000000000000000000000000000000000000000000000815250600290805190602001906200007f929190620003ed565b506040518060400160405280600581526020017f546f6b656e00000000000000000000000000000000000000000000000000000081525060039080519060200190620000cd929190620003ed565b506012600460006101000a81548160ff021916908360ff160217905550600460009054906101000a900460ff1660ff16600a0a633b9aca0002600581905550600554600660003373ffffffffffffffffffffffffffffffffffffffff1673ffffffffffffffffffffffffffffffffffffffff168152602001908152602001600020819055503373ffffffffffffffffffffffffffffffffffffffff16600073ffffffffffffffffffffffffffffffffffffffff167fddf252ad1be2c89b69c2b068fc378daa952ba7f163c4a11628f55a4df523b3ef6005546040518082815260200191505060405180910390a36200049c565b600033905090565b620001e38160006200022960201b620013211790919060201c565b8073ffffffffffffffffffffffffffffffffffffffff167f22380c05984257a1cb900161c713dd71d39e74820f1aea43bd3f1bdd2096129960405160405180910390a250565b6200023b82826200030d60201b60201c565b15620002af576040517f08c379a000000000000000000000000000000000000000000000000000000000815260040180806020018281038252601f8152602001807f526f6c65733a206163636f756e7420616c72656164792068617320726f6c650081525060200191505060405180910390fd5b60018260000160008373ffffffffffffffffffffffffffffffffffffffff1673ffffffffffffffffffffffffffffffffffffffff16815260200190815260200160002060006101000a81548160ff0219169083151502179055505050565b60008073ffffffffffffffffffffffffffffffffffffffff168273ffffffffffffffffffffffffffffffffffffffff16141562000396576040517f08c379a000000000000000000000000000000000000000000000000000000000815260040180806020018281038252602281526020018062001a576022913960400191505060405180910390fd5b8260000160008373ffffffffffffffffffffffffffffffffffffffff1673ffffffffffffffffffffffffffffffffffffffff16815260200190815260200160002060009054906101000a900460ff16905092915050565b828054600181600116156101000203166002900490600052602060002090601f016020900481019282601f106200043057805160ff191683800117855562000461565b8280016001018555821562000461579182015b828111156200046057825182559160200191906001019062000443565b5b50905062000470919062000474565b5090565b6200049991905b80821115620004955760008160009055506001016200047b565b5090565b90565b6115ab80620004ac6000396000f3fe6080604052600436106100f35760003560e01c80634c5a628c1161008a578063a9059cbb11610059578063a9059cbb14610552578063bb5f747b146105c5578063d6cd94731461062e578063dd62ed3e14610645576100f3565b80634c5a628c146103f557806370a082311461040c5780637362d9c81461047157806395d89b41146104c2576100f3565b806323b872dd116100c657806323b872dd14610277578063291d95491461030a578063313ce5671461035b5780633af32abf1461038c576100f3565b806306fdde03146100f8578063095ea7b31461018857806310154bad146101fb57806318160ddd1461024c575b600080fd5b34801561010457600080fd5b5061010d6106ca565b6040518080602001828103825283818151815260200191508051906020019080838360005b8381101561014d578082015181840152602081019050610132565b50505050905090810190601f16801561017a5780820380516001836020036101000a031916815260200191505b509250505060405180910390f35b34801561019457600080fd5b506101e1600480360360408110156101ab57600080fd5b81019080803573ffffffffffffffffffffffffffffffffffffffff16906020019092919080359060200190929190505050610768565b604051808215151515815260200191505060405180910390f35b34801561020757600080fd5b5061024a6004803603602081101561021e57600080fd5b81019080803573ffffffffffffffffffffffffffffffffffffffff16906020019092919050505061085a565b005b34801561025857600080fd5b506102616108cb565b6040518082815260200191505060405180910390f35b34801561028357600080fd5b506102f06004803603606081101561029a57600080fd5b81019080803573ffffffffffffffffffffffffffffffffffffffff169060200190929190803573ffffffffffffffffffffffffffffffffffffffff169060200190929190803590602001909291905050506108d1565b604051808215151515815260200191505060405180910390f35b34801561031657600080fd5b506103596004803603602081101561032d57600080fd5b81019080803573ffffffffffffffffffffffffffffffffffffffff169060200190929190505050610be1565b005b34801561036757600080fd5b50610370610c52565b604051808260ff1660ff16815260200191505060405180910390f35b34801561039857600080fd5b506103db600480360360208110156103af57600080fd5b81019080803573ffffffffffffffffffffffffffffffffffffffff169060200190929190505050610c65565b604051808215151515815260200191505060405180910390f35b34801561040157600080fd5b5061040a610c82565b005b34801561041857600080fd5b5061045b6004803603602081101561042f57600080fd5b81019080803573ffffffffffffffffffffffffffffffffffffffff169060200190929190505050610c94565b6040518082815260200191505060405180910390f35b34801561047d57600080fd5b506104c06004803603602081101561049457600080fd5b81019080803573ffffffffffffffffffffffffffffffffffffffff169060200190929190505050610cdd565b005b3480156104ce57600080fd5b506104d7610d4e565b6040518080602001828103825283818151815260200191508051906020019080838360005b838110156105175780820151818401526020810190506104fc565b50505050905090810190601f1680156105445780820380516001836020036101000a031916815260200191505b509250505060405180910390f35b34801561055e57600080fd5b506105ab6004803603604081101561057557600080fd5b81019080803573ffffffffffffffffffffffffffffffffffffffff16906020019092919080359060200190929190505050610dec565b604051808215151515815260200191505060405180910390f35b3480156105d157600080fd5b50610614600480360360208110156105e857600080fd5b81019080803573ffffffffffffffffffffffffffffffffffffffff169060200190929190505050610fec565b604051808215151515815260200191505060405180910390f35b34801561063a57600080fd5b50610643611009565b005b34801561065157600080fd5b506106b46004803603604081101561066857600080fd5b81019080803573ffffffffffffffffffffffffffffffffffffffff169060200190929190803573ffffffffffffffffffffffffffffffffffffffff16906020019092919050505061101b565b6040518082815260200191505060405180910390f35b60038054600181600116156101000203166002900480601f0160208091040260200160405190810160405280929190818152602001828054600181600116156101000203166002900480156107605780601f1061073557610100808354040283529160200191610760565b820191906000526020600020905b81548152906001019060200180831161074357829003601f168201915b505050505081565b600081600760003373ffffffffffffffffffffffffffffffffffffffff1673ffffffffffffffffffffffffffffffffffffffff16815260200190815260200160002060008573ffffffffffffffffffffffffffffffffffffffff1673ffffffffffffffffffffffffffffffffffffffff168152602001908152602001600020819055508273ffffffffffffffffffffffffffffffffffffffff163373ffffffffffffffffffffffffffffffffffffffff167f8c5be1e5ebec7d5bd14f71427d1e84f3dd0314c0f7b2291e5b200ac8c7c3b925846040518082815260200191505060405180910390a36001905092915050565b61086a6108656110a2565b610fec565b6108bf576040517f08c379a00000000000000000000000000000000000000000000000000000000081526004018080602001828103825260408152602001806114fd6040913960400191505060405180910390fd5b6108c8816110aa565b50565b60055481565b60006108e36108de6110a2565b610c65565b610938576040517f08c379a000000000000000000000000000000000000000000000000000000000815260040180806020018281038252603a81526020018061153d603a913960400191505060405180910390fd5b61098a82600660008773ffffffffffffffffffffffffffffffffffffffff1673ffffffffffffffffffffffffffffffffffffffff1681526020019081526020016000205461110490919063ffffffff16565b600660008673ffffffffffffffffffffffffffffffffffffffff1673ffffffffffffffffffffffffffffffffffffffff16815260200190815260200160002081905550610a5c82600760008773ffffffffffffffffffffffffffffffffffffffff1673ffffffffffffffffffffffffffffffffffffffff16815260200190815260200160002060003373ffffffffffffffffffffffffffffffffffffffff1673ffffffffffffffffffffffffffffffffffffffff1681526020019081526020016000205461110490919063ffffffff16565b600760008673ffffffffffffffffffffffffffffffffffffffff1673ffffffffffffffffffffffffffffffffffffffff16815260200190815260200160002060003373ffffffffffffffffffffffffffffffffffffffff1673ffffffffffffffffffffffffffffffffffffffff16815260200190815260200160002081905550610b2e82600660008673ffffffffffffffffffffffffffffffffffffffff1673ffffffffffffffffffffffffffffffffffffffff1681526020019081526020016000205461111b90919063ffffffff16565b600660008573ffffffffffffffffffffffffffffffffffffffff1673ffffffffffffffffffffffffffffffffffffffff168152602001908152602001600020819055508273ffffffffffffffffffffffffffffffffffffffff168473ffffffffffffffffffffffffffffffffffffffff167fddf252ad1be2c89b69c2b068fc378daa952ba7f163c4a11628f55a4df523b3ef846040518082815260200191505060405180910390a3600190509392505050565b610bf1610bec6110a2565b610fec565b610c46576040517f08c379a00000000000000000000000000000000000000000000000000000000081526004018080602001828103825260408152602001806114fd6040913960400191505060405180910390fd5b610c4f81611135565b50565b600460009054906101000a900460ff1681565b6000610c7b82600161118f90919063ffffffff16565b9050919050565b610c92610c8d6110a2565b61126d565b565b6000600660008373ffffffffffffffffffffffffffffffffffffffff1673ffffffffffffffffffffffffffffffffffffffff168152602001908152602001600020549050919050565b610ced610ce86110a2565b610fec565b610d42576040517f08c379a00000000000000000000000000000000000000000000000000000000081526004018080602001828103825260408152602001806114fd6040913960400191505060405180910390fd5b610d4b816112c7565b50565b60028054600181600116156101000203166002900480601f016020809104026020016040519081016040528092919081815260200182805460018160011615610100020316600290048015610de45780601f10610db957610100808354040283529160200191610de4565b820191906000526020600020905b815481529060010190602001808311610dc757829003601f168201915b505050505081565b6000610dfe610df96110a2565b610c65565b610e53576040517f08c379a000000000000000000000000000000000000000000000000000000000815260040180806020018281038252603a81526020018061153d603a913960400191505060405180910390fd5b610ea582600660003373ffffffffffffffffffffffffffffffffffffffff1673ffffffffffffffffffffffffffffffffffffffff1681526020019081526020016000205461110490919063ffffffff16565b600660003373ffffffffffffffffffffffffffffffffffffffff1673ffffffffffffffffffffffffffffffffffffffff16815260200190815260200160002081905550610f3a82600660008673ffffffffffffffffffffffffffffffffffffffff1673ffffffffffffffffffffffffffffffffffffffff1681526020019081526020016000205461111b90919063ffffffff16565b600660008573ffffffffffffffffffffffffffffffffffffffff1673ffffffffffffffffffffffffffffffffffffffff168152602001908152602001600020819055508273ffffffffffffffffffffffffffffffffffffffff163373ffffffffffffffffffffffffffffffffffffffff167fddf252ad1be2c89b69c2b068fc378daa952ba7f163c4a11628f55a4df523b3ef846040518082815260200191505060405180910390a36001905092915050565b600061100282600061118f90919063ffffffff16565b9050919050565b6110196110146110a2565b611135565b565b6000600760008473ffffffffffffffffffffffffffffffffffffffff1673ffffffffffffffffffffffffffffffffffffffff16815260200190815260200160002060008373ffffffffffffffffffffffffffffffffffffffff1673ffffffffffffffffffffffffffffffffffffffff16815260200190815260200160002054905092915050565b600033905090565b6110be81600161132190919063ffffffff16565b8073ffffffffffffffffffffffffffffffffffffffff167fee1504a83b6d4a361f4c1dc78ab59bfa30d6a3b6612c403e86bb01ef2984295f60405160405180910390a250565b60008282111561111057fe5b818303905092915050565b600081830190508281101561112c57fe5b80905092915050565b6111498160016113fc90919063ffffffff16565b8073ffffffffffffffffffffffffffffffffffffffff167f270d9b30cf5b0793bbfd54c9d5b94aeb49462b8148399000265144a8722da6b660405160405180910390a250565b60008073ffffffffffffffffffffffffffffffffffffffff168273ffffffffffffffffffffffffffffffffffffffff161415611216576040517f08c379a00000000000000000000000000000000000000000000000000000000081526004018080602001828103825260228152602001806114db6022913960400191505060405180910390fd5b8260000160008373ffffffffffffffffffffffffffffffffffffffff1673ffffffffffffffffffffffffffffffffffffffff16815260200190815260200160002060009054906101000a900460ff16905092915050565b6112818160006113fc90919063ffffffff16565b8073ffffffffffffffffffffffffffffffffffffffff167f0a8eb35e5ca14b3d6f28e4abf2f128dbab231a58b56e89beb5d636115001e16560405160405180910390a250565b6112db81600061132190919063ffffffff16565b8073ffffffffffffffffffffffffffffffffffffffff167f22380c05984257a1cb900161c713dd71d39e74820f1aea43bd3f1bdd2096129960405160405180910390a250565b61132b828261118f565b1561139e576040517f08c379a000000000000000000000000000000000000000000000000000000000815260040180806020018281038252601f8152602001807f526f6c65733a206163636f756e7420616c72656164792068617320726f6c650081525060200191505060405180910390fd5b60018260000160008373ffffffffffffffffffffffffffffffffffffffff1673ffffffffffffffffffffffffffffffffffffffff16815260200190815260200160002060006101000a81548160ff0219169083151502179055505050565b611406828261118f565b61145b576040517f08c379a00000000000000000000000000000000000000000000000000000000081526004018080602001828103825260218152602001806114ba6021913960400191505060405180910390fd5b60008260000160008373ffffffffffffffffffffffffffffffffffffffff1673ffffffffffffffffffffffffffffffffffffffff16815260200190815260200160002060006101000a81548160ff021916908315150217905550505056fe526f6c65733a206163636f756e7420646f6573206e6f74206861766520726f6c65526f6c65733a206163636f756e7420697320746865207a65726f206164647265737357686974656c69737441646d696e526f6c653a2063616c6c657220646f6573206e6f742068617665207468652057686974656c69737441646d696e20726f6c6557686974656c6973746564526f6c653a2063616c6c657220646f6573206e6f742068617665207468652057686974656c697374656420726f6c65a265627a7a723158202ffd9c60866d73ec8db6a19a51585d98b100e025a74ec0f48a4f73acb881048564736f6c634300050c0032526f6c65733a206163636f756e7420697320746865207a65726f2061646472657373",
  "source": "pragma solidity >=0.4.21 <0.6.0;\nimport 'zeppelin-solidity/contracts/math/SafeMath.sol';\n/**\n * Token\n *\n * @title A fixed supply ERC-20 token.\n * https://github.com/ethereum/EIPs/blob/master/EIPS/eip-20.md\n */\nimport  \"../IERC20.sol\";\nimport  \"../WhitelistedRole.sol\";\ncontract Token is IERC20, WhitelistedRole{\n    using SafeMath for uint;\n    event Transfer(\n        address indexed _from,\n        address indexed _to,\n        uint256 _value\n    );\n    event Approval(\n        address indexed _owner,\n        address indexed _spender,\n        uint256 _value\n    );\n    string public symbol;\n    string public name;\n    uint8 public decimals;\n    uint public totalSupply;\n    mapping(address => uint) balances;\n    mapping(address => mapping(address => uint)) allowed;\n    /**\n     * Constructs the Token contract and gives all of the supply to the address\n     *     that deployed it. The fixed supply is 1 billion tokens with up to 18\n     *     decimal places.\n     */\n    constructor() public {\n        symbol = 'TOK';\n        name = 'Token';\n        decimals = 18;\n        totalSupply = 1000000000 * 10**uint(decimals);\n        balances[msg.sender] = totalSupply;\n        emit Transfer(address(0), msg.sender, totalSupply);\n    }\n    /**\n     * @dev Fallback function\n     */\n    function() external payable { revert(); }\n    /**\n     * Gets the token balance of any wallet.\n     * @param _owner Wallet address of the returned token balance.\n     * @return The balance of tokens in the wallet.\n     */\n    function balanceOf(address _owner)\n        public\n        view\n        returns (uint balance)\n    {\n        return balances[_owner];\n    }\n    \n    \n    /**\n     * Transfers tokens from the sender's wallet to the specified `_to` wallet.\n     * @param _to Address of the transfer's recipient.\n     * @param _value Number of tokens to transfer.\n     * @return True if the transfer succeeded.\n     */\n    function transfer(address _to, uint _value)  onlyWhitelisted public returns (bool success) {\n        balances[msg.sender] = balances[msg.sender].sub(_value);\n        balances[_to] = balances[_to].add(_value);\n        emit Transfer(msg.sender, _to, _value);\n        return true;\n    }\n    /**\n     * Transfer tokens from any wallet to the `_to` wallet. This only works if\n     *     the `_from` wallet has already allocated tokens for the caller wallet\n     *     using `approve`. The from wallet must have sufficient balance to\n     *     transfer. The caller must have sufficient allowance to transfer.\n     * @param _from Wallet address that tokens are withdrawn from.\n     * @param _to Wallet address that tokens are deposited to.\n     * @param _value Number of tokens transacted.\n     * @return True if the transfer succeeded.\n     */\n    function transferFrom(address _from, address _to, uint _value)\n        onlyWhitelisted\n        public\n        returns (bool success)\n    {\n        balances[_from] = balances[_from].sub(_value);\n        allowed[_from][msg.sender] = allowed[_from][msg.sender].sub(_value);\n        balances[_to] = balances[_to].add(_value);\n        emit Transfer(_from, _to, _value);\n        return true;\n    }\n    /**\n     * Sender allows another wallet to `transferFrom` tokens from their wallet.\n     * @param _spender Address of `transferFrom` recipient.\n     * @param _value Number of tokens to `transferFrom`.\n     * @return True if the approval succeeded.\n     */\n    function approve(address _spender, uint _value)\n        public\n        returns (bool success)\n    {\n        allowed[msg.sender][_spender] = _value;\n        emit Approval(msg.sender, _spender, _value);\n        return true;\n    }\n    /**\n     * Gets the number of tokens that an `_owner` has approved for a _spender\n     *     to `transferFrom`.\n     * @param _owner Wallet address that tokens can be withdrawn from.\n     * @param _spender Wallet address that tokens can be deposited to.\n     * @return The number of tokens allowed to be transferred.\n     */\n    function allowance(address _owner, address _spender)\n        public\n        view\n        returns (uint remaining)\n    {\n        return allowed[_owner][_spender];\n    }\n}",
  "sourcePath": "/Users/gayardo/Desktop/erc_20/contracts/Token.sol",
  "compiler": {
    "name": "solc",
    "version": "0.5.12+commit.7709ece9.Emscripten.clang"
  },
  "schemaVersion": "3.0.19",
  "updatedAt": "2019-11-26T22:07:12.911Z",
  "devdoc": {
    "methods": {
      "allowance(address,address)": {
        "params": {
          "_owner": "Wallet address that tokens can be withdrawn from.",
          "_spender": "Wallet address that tokens can be deposited to."
        },
        "return": "The number of tokens allowed to be transferred."
      },
      "approve(address,uint256)": {
        "params": {
          "_spender": "Address of `transferFrom` recipient.",
          "_value": "Number of tokens to `transferFrom`."
        },
        "return": "True if the approval succeeded."
      },
      "balanceOf(address)": {
        "params": {
          "_owner": "Wallet address of the returned token balance."
        },
        "return": "The balance of tokens in the wallet."
      },
      "transfer(address,uint256)": {
        "params": {
          "_to": "Address of the transfer's recipient.",
          "_value": "Number of tokens to transfer."
        },
        "return": "True if the transfer succeeded."
      },
      "transferFrom(address,address,uint256)": {
        "params": {
          "_from": "Wallet address that tokens are withdrawn from.",
          "_to": "Wallet address that tokens are deposited to.",
          "_value": "Number of tokens transacted."
        },
        "return": "True if the transfer succeeded."
      }
    }
  },
  "userdoc": {
    "methods": {
      "allowance(address,address)": {
        "notice": "Gets the number of tokens that an `_owner` has approved for a _spender    to `transferFrom`."
      },
      "approve(address,uint256)": {
        "notice": "Sender allows another wallet to `transferFrom` tokens from their wallet."
      },
      "balanceOf(address)": {
        "notice": "Gets the token balance of any wallet."
      },
      "constructor": "Constructs the Token contract and gives all of the supply to the address    that deployed it. The fixed supply is 1 billion tokens with up to 18    decimal places.",
      "transfer(address,uint256)": {
        "notice": "Transfers tokens from the sender's wallet to the specified `_to` wallet."
      },
      "transferFrom(address,address,uint256)": {
        "notice": "Transfer tokens from any wallet to the `_to` wallet. This only works if    the `_from` wallet has already allocated tokens for the caller wallet    using `approve`. The from wallet must have sufficient balance to    transfer. The caller must have sufficient allowance to transfer."
      }
    }
  }
}